{
  "abi": [
    {
      "inputs": [
        {
          "internalType": "string",
          "name": "_name",
          "type": "string"
        },
        {
          "internalType": "string",
          "name": "_symbol",
          "type": "string"
        },
        {
          "internalType": "bytes32",
          "name": "_merkleRoot",
          "type": "bytes32"
        }
      ],
      "stateMutability": "nonpayable",
      "type": "constructor"
    },
    {
      "inputs": [],
      "name": "AlreadyClaimed",
      "type": "error"
    },
    {
      "inputs": [],
      "name": "NotInMerkle",
      "type": "error"
    },
    {
      "anonymous": false,
      "inputs": [
        {
          "indexed": true,
          "internalType": "address",
          "name": "owner",
          "type": "address"
        },
        {
          "indexed": true,
          "internalType": "address",
          "name": "approved",
          "type": "address"
        },
        {
          "indexed": true,
          "internalType": "uint256",
          "name": "tokenId",
          "type": "uint256"
        }
      ],
      "name": "Approval",
      "type": "event"
    },
    {
      "anonymous": false,
      "inputs": [
        {
          "indexed": true,
          "internalType": "address",
          "name": "owner",
          "type": "address"
        },
        {
          "indexed": true,
          "internalType": "address",
          "name": "operator",
          "type": "address"
        },
        {
          "indexed": false,
          "internalType": "bool",
          "name": "approved",
          "type": "bool"
        }
      ],
      "name": "ApprovalForAll",
      "type": "event"
    },
    {
      "anonymous": false,
      "inputs": [
        {
          "indexed": true,
          "internalType": "address",
          "name": "to",
          "type": "address"
        },
        {
          "indexed": false,
          "internalType": "uint256",
          "name": "id",
          "type": "uint256"
        }
      ],
      "name": "Claim",
      "type": "event"
    },
    {
      "anonymous": false,
      "inputs": [
        {
          "indexed": true,
          "internalType": "address",
          "name": "from",
          "type": "address"
        },
        {
          "indexed": true,
          "internalType": "address",
          "name": "to",
          "type": "address"
        },
        {
          "indexed": true,
          "internalType": "uint256",
          "name": "tokenId",
          "type": "uint256"
        }
      ],
      "name": "Transfer",
      "type": "event"
    },
    {
      "inputs": [
        {
          "internalType": "address",
          "name": "to",
          "type": "address"
        },
        {
          "internalType": "uint256",
          "name": "tokenId",
          "type": "uint256"
        }
      ],
      "name": "approve",
      "outputs": [],
      "stateMutability": "nonpayable",
      "type": "function"
    },
    {
      "inputs": [
        {
          "internalType": "address",
          "name": "owner",
          "type": "address"
        }
      ],
      "name": "balanceOf",
      "outputs": [
        {
          "internalType": "uint256",
          "name": "",
          "type": "uint256"
        }
      ],
      "stateMutability": "view",
      "type": "function"
    },
    {
      "inputs": [
        {
          "internalType": "address",
          "name": "to",
          "type": "address"
        },
        {
          "internalType": "string",
          "name": "_tokenURI",
          "type": "string"
        },
        {
          "internalType": "bytes32[]",
          "name": "proof",
          "type": "bytes32[]"
        }
      ],
      "name": "claim",
      "outputs": [],
      "stateMutability": "nonpayable",
      "type": "function"
    },
    {
      "inputs": [
        {
          "internalType": "uint256",
          "name": "tokenId",
          "type": "uint256"
        }
      ],
      "name": "getApproved",
      "outputs": [
        {
          "internalType": "address",
          "name": "",
          "type": "address"
        }
      ],
      "stateMutability": "view",
      "type": "function"
    },
    {
      "inputs": [
        {
          "internalType": "address",
          "name": "",
          "type": "address"
        }
      ],
      "name": "hasClaimed",
      "outputs": [
        {
          "internalType": "bool",
          "name": "",
          "type": "bool"
        }
      ],
      "stateMutability": "view",
      "type": "function"
    },
    {
      "inputs": [
        {
          "internalType": "address",
          "name": "owner",
          "type": "address"
        },
        {
          "internalType": "address",
          "name": "operator",
          "type": "address"
        }
      ],
      "name": "isApprovedForAll",
      "outputs": [
        {
          "internalType": "bool",
          "name": "",
          "type": "bool"
        }
      ],
      "stateMutability": "view",
      "type": "function"
    },
    {
      "inputs": [],
      "name": "merkleRoot",
      "outputs": [
        {
          "internalType": "bytes32",
          "name": "",
          "type": "bytes32"
        }
      ],
      "stateMutability": "view",
      "type": "function"
    },
    {
      "inputs": [],
      "name": "name",
      "outputs": [
        {
          "internalType": "string",
          "name": "",
          "type": "string"
        }
      ],
      "stateMutability": "view",
      "type": "function"
    },
    {
      "inputs": [
        {
          "internalType": "uint256",
          "name": "tokenId",
          "type": "uint256"
        }
      ],
      "name": "ownerOf",
      "outputs": [
        {
          "internalType": "address",
          "name": "",
          "type": "address"
        }
      ],
      "stateMutability": "view",
      "type": "function"
    },
    {
      "inputs": [
        {
          "internalType": "address",
          "name": "from",
          "type": "address"
        },
        {
          "internalType": "address",
          "name": "to",
          "type": "address"
        },
        {
          "internalType": "uint256",
          "name": "tokenId",
          "type": "uint256"
        }
      ],
      "name": "safeTransferFrom",
      "outputs": [],
      "stateMutability": "nonpayable",
      "type": "function"
    },
    {
      "inputs": [
        {
          "internalType": "address",
          "name": "from",
          "type": "address"
        },
        {
          "internalType": "address",
          "name": "to",
          "type": "address"
        },
        {
          "internalType": "uint256",
          "name": "tokenId",
          "type": "uint256"
        },
        {
          "internalType": "bytes",
          "name": "_data",
          "type": "bytes"
        }
      ],
      "name": "safeTransferFrom",
      "outputs": [],
      "stateMutability": "nonpayable",
      "type": "function"
    },
    {
      "inputs": [
        {
          "internalType": "address",
          "name": "operator",
          "type": "address"
        },
        {
          "internalType": "bool",
          "name": "approved",
          "type": "bool"
        }
      ],
      "name": "setApprovalForAll",
      "outputs": [],
      "stateMutability": "nonpayable",
      "type": "function"
    },
    {
      "inputs": [
        {
          "internalType": "bytes4",
          "name": "interfaceId",
          "type": "bytes4"
        }
      ],
      "name": "supportsInterface",
      "outputs": [
        {
          "internalType": "bool",
          "name": "",
          "type": "bool"
        }
      ],
      "stateMutability": "view",
      "type": "function"
    },
    {
      "inputs": [],
      "name": "symbol",
      "outputs": [
        {
          "internalType": "string",
          "name": "",
          "type": "string"
        }
      ],
      "stateMutability": "view",
      "type": "function"
    },
    {
      "inputs": [
        {
          "internalType": "uint256",
          "name": "tokenId",
          "type": "uint256"
        }
      ],
      "name": "tokenURI",
      "outputs": [
        {
          "internalType": "string",
          "name": "",
          "type": "string"
        }
      ],
      "stateMutability": "view",
      "type": "function"
    },
    {
      "inputs": [
        {
          "internalType": "address",
          "name": "from",
          "type": "address"
        },
        {
          "internalType": "address",
          "name": "to",
          "type": "address"
        },
        {
          "internalType": "uint256",
          "name": "tokenId",
          "type": "uint256"
        }
      ],
      "name": "transferFrom",
      "outputs": [],
      "stateMutability": "nonpayable",
      "type": "function"
    }
  ],
  "bytecode": {
    "object": "0x60a06040523480156200001157600080fd5b5060405162001c8d38038062001c8d8339810160408190526200003491620001e5565b8251839083906200004d90600090602085019062000072565b5080516200006390600190602084019062000072565b50505060805250620002959050565b828054620000809062000258565b90600052602060002090601f016020900481019282620000a45760008555620000ef565b82601f10620000bf57805160ff1916838001178555620000ef565b82800160010185558215620000ef579182015b82811115620000ef578251825591602001919060010190620000d2565b50620000fd92915062000101565b5090565b5b80821115620000fd576000815560010162000102565b634e487b7160e01b600052604160045260246000fd5b600082601f8301126200014057600080fd5b81516001600160401b03808211156200015d576200015d62000118565b604051601f8301601f19908116603f0116810190828211818310171562000188576200018862000118565b81604052838152602092508683858801011115620001a557600080fd5b600091505b83821015620001c95785820183015181830184015290820190620001aa565b83821115620001db5760008385830101525b9695505050505050565b600080600060608486031215620001fb57600080fd5b83516001600160401b03808211156200021357600080fd5b62000221878388016200012e565b945060208601519150808211156200023857600080fd5b5062000247868287016200012e565b925050604084015190509250925092565b600181811c908216806200026d57607f821691505b602082108114156200028f57634e487b7160e01b600052602260045260246000fd5b50919050565b6080516119d5620002b8600039600081816101ad01526105dd01526119d56000f3fe608060405234801561001057600080fd5b50600436106101005760003560e01c80636352211e11610097578063a22cb46511610066578063a22cb46514610241578063b88d4fde14610254578063c87b56dd14610267578063e985e9c51461027a57600080fd5b80636352211e146101f057806370a082311461020357806373b2e80e1461021657806395d89b411461023957600080fd5b80630d125e50116100d35780630d125e501461018257806323b872dd146101955780632eb4a7ab146101a857806342842e0e146101dd57600080fd5b806301ffc9a71461010557806306fdde031461012d578063081812fc14610142578063095ea7b31461016d575b600080fd5b6101186101133660046113ed565b6102b6565b60405190151581526020015b60405180910390f35b610135610308565b6040516101249190611462565b610155610150366004611475565b61039a565b6040516001600160a01b039091168152602001610124565b61018061017b3660046114aa565b610427565b005b610180610190366004611560565b61053d565b6101806101a336600461161c565b6106f7565b6101cf7f000000000000000000000000000000000000000000000000000000000000000081565b604051908152602001610124565b6101806101eb36600461161c565b610728565b6101556101fe366004611475565b610743565b6101cf610211366004611658565b6107ba565b610118610224366004611658565b60086020526000908152604090205460ff1681565b610135610840565b61018061024f366004611673565b61084f565b6101806102623660046116af565b61085e565b610135610275366004611475565b610896565b61011861028836600461172b565b6001600160a01b03918216600090815260056020908152604080832093909416825291909152205460ff1690565b60006001600160e01b031982166380ac58cd60e01b14806102e757506001600160e01b03198216635b5e139f60e01b145b8061030257506301ffc9a760e01b6001600160e01b03198316145b92915050565b6060600080546103179061175e565b80601f01602080910402602001604051908101604052809291908181526020018280546103439061175e565b80156103905780601f1061036557610100808354040283529160200191610390565b820191906000526020600020905b81548152906001019060200180831161037357829003601f168201915b5050505050905090565b60006103a582610a0d565b61040b5760405162461bcd60e51b815260206004820152602c60248201527f4552433732313a20617070726f76656420717565727920666f72206e6f6e657860448201526b34b9ba32b73a103a37b5b2b760a11b60648201526084015b60405180910390fd5b506000908152600460205260409020546001600160a01b031690565b600061043282610743565b9050806001600160a01b0316836001600160a01b031614156104a05760405162461bcd60e51b815260206004820152602160248201527f4552433732313a20617070726f76616c20746f2063757272656e74206f776e656044820152603960f91b6064820152608401610402565b336001600160a01b03821614806104bc57506104bc8133610288565b61052e5760405162461bcd60e51b815260206004820152603860248201527f4552433732313a20617070726f76652063616c6c6572206973206e6f74206f7760448201527f6e6572206e6f7220617070726f76656420666f7220616c6c00000000000000006064820152608401610402565b6105388383610a2a565b505050565b6001600160a01b03841660009081526008602052604090205460ff161561057757604051630c8d9eab60e31b815260040160405180910390fd5b604080516001600160a01b03861660208201526000910160405160208183030381529060405280519060200120905060006106088484808060200260200160405190810160405280939291908181526020018383602002808284376000920191909152507f00000000000000000000000000000000000000000000000000000000000000009250869150610a989050565b9050806106285760405163452c2df160e11b815260040160405180910390fd5b6001600160a01b0386166000908152600860205260408120805460ff191660011790556007805465ffffffffffff1691610661836117af565b82546101009290920a65ffffffffffff8181021990931691831602179091556007546106909250889116610aae565b6007546106a59065ffffffffffff1686610be1565b60075460405165ffffffffffff90911681526001600160a01b038716907f47cee97cb7acd717b3c0aa1435d004cd5b3c8c57d70dbceb4e4458bbd60e39d49060200160405180910390a2505050505050565b6107013382610c6c565b61071d5760405162461bcd60e51b8152600401610402906117d5565b610538838383610d55565b6105388383836040518060200160405280600081525061085e565b6000818152600260205260408120546001600160a01b0316806103025760405162461bcd60e51b815260206004820152602960248201527f4552433732313a206f776e657220717565727920666f72206e6f6e657869737460448201526832b73a103a37b5b2b760b91b6064820152608401610402565b60006001600160a01b0382166108245760405162461bcd60e51b815260206004820152602960248201527f4552433732313a2061646472657373207a65726f206973206e6f7420612076616044820152683634b21037bbb732b960b91b6064820152608401610402565b506001600160a01b031660009081526003602052604090205490565b6060600180546103179061175e565b61085a338383610ef1565b5050565b6108683383610c6c565b6108845760405162461bcd60e51b8152600401610402906117d5565b61089084848484610fc0565b50505050565b60606108a182610a0d565b6109075760405162461bcd60e51b815260206004820152603160248201527f45524337323155524953746f726167653a2055524920717565727920666f72206044820152703737b732bc34b9ba32b73a103a37b5b2b760791b6064820152608401610402565b600082815260066020526040812080546109209061175e565b80601f016020809104026020016040519081016040528092919081815260200182805461094c9061175e565b80156109995780601f1061096e57610100808354040283529160200191610999565b820191906000526020600020905b81548152906001019060200180831161097c57829003601f168201915b5050505050905060006109b760408051602081019091526000815290565b90508051600014156109ca575092915050565b8151156109fc5780826040516020016109e4929190611826565b60405160208183030381529060405292505050919050565b610a0584610ff3565b949350505050565b6000908152600260205260409020546001600160a01b0316151590565b600081815260046020526040902080546001600160a01b0319166001600160a01b0384169081179091558190610a5f82610743565b6001600160a01b03167f8c5be1e5ebec7d5bd14f71427d1e84f3dd0314c0f7b2291e5b200ac8c7c3b92560405160405180910390a45050565b600082610aa585846110cb565b14949350505050565b6001600160a01b038216610b045760405162461bcd60e51b815260206004820181905260248201527f4552433732313a206d696e7420746f20746865207a65726f20616464726573736044820152606401610402565b610b0d81610a0d565b15610b5a5760405162461bcd60e51b815260206004820152601c60248201527f4552433732313a20746f6b656e20616c7265616479206d696e746564000000006044820152606401610402565b6001600160a01b0382166000908152600360205260408120805460019290610b83908490611855565b909155505060008181526002602052604080822080546001600160a01b0319166001600160a01b03861690811790915590518392907fddf252ad1be2c89b69c2b068fc378daa952ba7f163c4a11628f55a4df523b3ef908290a45050565b610bea82610a0d565b610c4d5760405162461bcd60e51b815260206004820152602e60248201527f45524337323155524953746f726167653a2055524920736574206f66206e6f6e60448201526d32bc34b9ba32b73a103a37b5b2b760911b6064820152608401610402565b600082815260066020908152604090912082516105389284019061133b565b6000610c7782610a0d565b610cd85760405162461bcd60e51b815260206004820152602c60248201527f4552433732313a206f70657261746f7220717565727920666f72206e6f6e657860448201526b34b9ba32b73a103a37b5b2b760a11b6064820152608401610402565b6000610ce383610743565b9050806001600160a01b0316846001600160a01b03161480610d2a57506001600160a01b0380821660009081526005602090815260408083209388168352929052205460ff165b80610a055750836001600160a01b0316610d438461039a565b6001600160a01b031614949350505050565b826001600160a01b0316610d6882610743565b6001600160a01b031614610dcc5760405162461bcd60e51b815260206004820152602560248201527f4552433732313a207472616e736665722066726f6d20696e636f72726563742060448201526437bbb732b960d91b6064820152608401610402565b6001600160a01b038216610e2e5760405162461bcd60e51b8152602060048201526024808201527f4552433732313a207472616e7366657220746f20746865207a65726f206164646044820152637265737360e01b6064820152608401610402565b610e39600082610a2a565b6001600160a01b0383166000908152600360205260408120805460019290610e6290849061186d565b90915550506001600160a01b0382166000908152600360205260408120805460019290610e90908490611855565b909155505060008181526002602052604080822080546001600160a01b0319166001600160a01b0386811691821790925591518493918716917fddf252ad1be2c89b69c2b068fc378daa952ba7f163c4a11628f55a4df523b3ef91a4505050565b816001600160a01b0316836001600160a01b03161415610f535760405162461bcd60e51b815260206004820152601960248201527f4552433732313a20617070726f766520746f2063616c6c6572000000000000006044820152606401610402565b6001600160a01b03838116600081815260056020908152604080832094871680845294825291829020805460ff191686151590811790915591519182527f17307eab39ab6107e8899845ad3d59bd9653f200f220920489ca2b5937696c31910160405180910390a3505050565b610fcb848484610d55565b610fd78484848461113f565b6108905760405162461bcd60e51b815260040161040290611884565b6060610ffe82610a0d565b6110625760405162461bcd60e51b815260206004820152602f60248201527f4552433732314d657461646174613a2055524920717565727920666f72206e6f60448201526e3732bc34b9ba32b73a103a37b5b2b760891b6064820152608401610402565b600061107960408051602081019091526000815290565b9050600081511161109957604051806020016040528060008152506110c4565b806110a38461123d565b6040516020016110b4929190611826565b6040516020818303038152906040525b9392505050565b600081815b84518110156111375760008582815181106110ed576110ed6118d6565b602002602001015190508083116111135760008381526020829052604090209250611124565b600081815260208490526040902092505b508061112f816118ec565b9150506110d0565b509392505050565b60006001600160a01b0384163b1561123257604051630a85bd0160e11b81526001600160a01b0385169063150b7a0290611183903390899088908890600401611907565b6020604051808303816000875af19250505080156111be575060408051601f3d908101601f191682019092526111bb91810190611944565b60015b611218573d8080156111ec576040519150601f19603f3d011682016040523d82523d6000602084013e6111f1565b606091505b5080516112105760405162461bcd60e51b815260040161040290611884565b805181602001fd5b6001600160e01b031916630a85bd0160e11b149050610a05565b506001949350505050565b6060816112615750506040805180820190915260018152600360fc1b602082015290565b8160005b811561128b5780611275816118ec565b91506112849050600a83611977565b9150611265565b60008167ffffffffffffffff8111156112a6576112a66114d4565b6040519080825280601f01601f1916602001820160405280156112d0576020820181803683370190505b5090505b8415610a05576112e560018361186d565b91506112f2600a8661198b565b6112fd906030611855565b60f81b818381518110611312576113126118d6565b60200101906001600160f81b031916908160001a905350611334600a86611977565b94506112d4565b8280546113479061175e565b90600052602060002090601f01602090048101928261136957600085556113af565b82601f1061138257805160ff19168380011785556113af565b828001600101855582156113af579182015b828111156113af578251825591602001919060010190611394565b506113bb9291506113bf565b5090565b5b808211156113bb57600081556001016113c0565b6001600160e01b0319811681146113ea57600080fd5b50565b6000602082840312156113ff57600080fd5b81356110c4816113d4565b60005b8381101561142557818101518382015260200161140d565b838111156108905750506000910152565b6000815180845261144e81602086016020860161140a565b601f01601f19169290920160200192915050565b6020815260006110c46020830184611436565b60006020828403121561148757600080fd5b5035919050565b80356001600160a01b03811681146114a557600080fd5b919050565b600080604083850312156114bd57600080fd5b6114c68361148e565b946020939093013593505050565b634e487b7160e01b600052604160045260246000fd5b600067ffffffffffffffff80841115611505576115056114d4565b604051601f8501601f19908116603f0116810190828211818310171561152d5761152d6114d4565b8160405280935085815286868601111561154657600080fd5b858560208301376000602087830101525050509392505050565b6000806000806060858703121561157657600080fd5b61157f8561148e565b9350602085013567ffffffffffffffff8082111561159c57600080fd5b818701915087601f8301126115b057600080fd5b6115bf888335602085016114ea565b945060408701359150808211156115d557600080fd5b818701915087601f8301126115e957600080fd5b8135818111156115f857600080fd5b8860208260051b850101111561160d57600080fd5b95989497505060200194505050565b60008060006060848603121561163157600080fd5b61163a8461148e565b92506116486020850161148e565b9150604084013590509250925092565b60006020828403121561166a57600080fd5b6110c48261148e565b6000806040838503121561168657600080fd5b61168f8361148e565b9150602083013580151581146116a457600080fd5b809150509250929050565b600080600080608085870312156116c557600080fd5b6116ce8561148e565b93506116dc6020860161148e565b925060408501359150606085013567ffffffffffffffff8111156116ff57600080fd5b8501601f8101871361171057600080fd5b61171f878235602084016114ea565b91505092959194509250565b6000806040838503121561173e57600080fd5b6117478361148e565b91506117556020840161148e565b90509250929050565b600181811c9082168061177257607f821691505b6020821081141561179357634e487b7160e01b600052602260045260246000fd5b50919050565b634e487b7160e01b600052601160045260246000fd5b600065ffffffffffff808316818114156117cb576117cb611799565b6001019392505050565b60208082526031908201527f4552433732313a207472616e736665722063616c6c6572206973206e6f74206f6040820152701ddb995c881b9bdc88185c1c1c9bdd9959607a1b606082015260800190565b6000835161183881846020880161140a565b83519083019061184c81836020880161140a565b01949350505050565b6000821982111561186857611868611799565b500190565b60008282101561187f5761187f611799565b500390565b60208082526032908201527f4552433732313a207472616e7366657220746f206e6f6e20455243373231526560408201527131b2b4bb32b91034b6b83632b6b2b73a32b960711b606082015260800190565b634e487b7160e01b600052603260045260246000fd5b600060001982141561190057611900611799565b5060010190565b6001600160a01b038581168252841660208201526040810183905260806060820181905260009061193a90830184611436565b9695505050505050565b60006020828403121561195657600080fd5b81516110c4816113d4565b634e487b7160e01b600052601260045260246000fd5b60008261198657611986611961565b500490565b60008261199a5761199a611961565b50069056fea264697066735822122068c1df220eb594e52e38dbfa4614359f4c8014cca849d73255692b7fd11978be64736f6c634300080a0033",
    "linkReferences": {}
  }
}